{
  "_format": "hh-sol-artifact-1",
  "contractName": "FellowshipTokenSale",
  "sourceName": "contracts/tokenSales/tokenSale.sol",
  "abi": [
    {
      "inputs": [],
      "stateMutability": "nonpayable",
      "type": "constructor"
    },
    {
      "anonymous": false,
      "inputs": [
        {
          "indexed": true,
          "internalType": "address",
          "name": "buyer",
          "type": "address"
        },
        {
          "indexed": false,
          "internalType": "uint256",
          "name": "ethAmount",
          "type": "uint256"
        },
        {
          "indexed": false,
          "internalType": "uint256",
          "name": "tokenAmount",
          "type": "uint256"
        }
      ],
      "name": "TokensPurchased",
      "type": "event"
    },
    {
      "anonymous": false,
      "inputs": [
        {
          "indexed": true,
          "internalType": "address",
          "name": "from",
          "type": "address"
        },
        {
          "indexed": true,
          "internalType": "address",
          "name": "to",
          "type": "address"
        },
        {
          "indexed": false,
          "internalType": "uint256",
          "name": "value",
          "type": "uint256"
        }
      ],
      "name": "Transfer",
      "type": "event"
    },
    {
      "inputs": [],
      "name": "RATE",
      "outputs": [
        {
          "internalType": "uint256",
          "name": "",
          "type": "uint256"
        }
      ],
      "stateMutability": "view",
      "type": "function"
    },
    {
      "inputs": [
        {
          "internalType": "address",
          "name": "",
          "type": "address"
        }
      ],
      "name": "balanceOf",
      "outputs": [
        {
          "internalType": "uint256",
          "name": "",
          "type": "uint256"
        }
      ],
      "stateMutability": "view",
      "type": "function"
    },
    {
      "inputs": [],
      "name": "buyTokens",
      "outputs": [],
      "stateMutability": "payable",
      "type": "function"
    },
    {
      "inputs": [],
      "name": "decimals",
      "outputs": [
        {
          "internalType": "uint8",
          "name": "",
          "type": "uint8"
        }
      ],
      "stateMutability": "view",
      "type": "function"
    },
    {
      "inputs": [],
      "name": "name",
      "outputs": [
        {
          "internalType": "string",
          "name": "",
          "type": "string"
        }
      ],
      "stateMutability": "view",
      "type": "function"
    },
    {
      "inputs": [],
      "name": "owner",
      "outputs": [
        {
          "internalType": "address",
          "name": "",
          "type": "address"
        }
      ],
      "stateMutability": "view",
      "type": "function"
    },
    {
      "inputs": [],
      "name": "symbol",
      "outputs": [
        {
          "internalType": "string",
          "name": "",
          "type": "string"
        }
      ],
      "stateMutability": "view",
      "type": "function"
    },
    {
      "inputs": [],
      "name": "totalSupply",
      "outputs": [
        {
          "internalType": "uint256",
          "name": "",
          "type": "uint256"
        }
      ],
      "stateMutability": "view",
      "type": "function"
    },
    {
      "inputs": [
        {
          "internalType": "uint256",
          "name": "amount",
          "type": "uint256"
        }
      ],
      "name": "withdrawRemainingTokens",
      "outputs": [],
      "stateMutability": "nonpayable",
      "type": "function"
    },
    {
      "stateMutability": "payable",
      "type": "receive"
    }
  ],
  "bytecode": "0x60806040526040518060400160405280600f81526020017f46656c6c6f7773686970546f6b656e0000000000000000000000000000000000815250600090816100489190610472565b506040518060400160405280600381526020017f46535400000000000000000000000000000000000000000000000000000000008152506001908161008d9190610472565b506012600260006101000a81548160ff021916908360ff1602179055503480156100b657600080fd5b5033600460006101000a81548173ffffffffffffffffffffffffffffffffffffffff021916908373ffffffffffffffffffffffffffffffffffffffff160217905550600260009054906101000a900460ff1660ff16600a61011791906106a6565b620186a061012591906106f1565b60038190555060035460056000600460009054906101000a900473ffffffffffffffffffffffffffffffffffffffff1673ffffffffffffffffffffffffffffffffffffffff1673ffffffffffffffffffffffffffffffffffffffff16815260200190815260200160002081905550600460009054906101000a900473ffffffffffffffffffffffffffffffffffffffff1673ffffffffffffffffffffffffffffffffffffffff16600073ffffffffffffffffffffffffffffffffffffffff167fddf252ad1be2c89b69c2b068fc378daa952ba7f163c4a11628f55a4df523b3ef6003546040516102159190610742565b60405180910390a361075d565b600081519050919050565b7f4e487b7100000000000000000000000000000000000000000000000000000000600052604160045260246000fd5b7f4e487b7100000000000000000000000000000000000000000000000000000000600052602260045260246000fd5b600060028204905060018216806102a357607f821691505b6020821081036102b6576102b561025c565b5b50919050565b60008190508160005260206000209050919050565b60006020601f8301049050919050565b600082821b905092915050565b60006008830261031e7fffffffffffffffffffffffffffffffffffffffffffffffffffffffffffffffff826102e1565b61032886836102e1565b95508019841693508086168417925050509392505050565b6000819050919050565b6000819050919050565b600061036f61036a61036584610340565b61034a565b610340565b9050919050565b6000819050919050565b61038983610354565b61039d61039582610376565b8484546102ee565b825550505050565b600090565b6103b26103a5565b6103bd818484610380565b505050565b5b818110156103e1576103d66000826103aa565b6001810190506103c3565b5050565b601f821115610426576103f7816102bc565b610400846102d1565b8101602085101561040f578190505b61042361041b856102d1565b8301826103c2565b50505b505050565b600082821c905092915050565b60006104496000198460080261042b565b1980831691505092915050565b60006104628383610438565b9150826002028217905092915050565b61047b82610222565b67ffffffffffffffff8111156104945761049361022d565b5b61049e825461028b565b6104a98282856103e5565b600060209050601f8311600181146104dc57600084156104ca578287015190505b6104d48582610456565b86555061053c565b601f1984166104ea866102bc565b60005b82811015610512578489015182556001820191506020850194506020810190506104ed565b8683101561052f578489015161052b601f891682610438565b8355505b6001600288020188555050505b505050505050565b7f4e487b7100000000000000000000000000000000000000000000000000000000600052601160045260246000fd5b60008160011c9050919050565b6000808291508390505b60018511156105ca578086048111156105a6576105a5610544565b5b60018516156105b55780820291505b80810290506105c385610573565b945061058a565b94509492505050565b6000826105e3576001905061069f565b816105f1576000905061069f565b8160018114610607576002811461061157610640565b600191505061069f565b60ff84111561062357610622610544565b5b8360020a91508482111561063a57610639610544565b5b5061069f565b5060208310610133831016604e8410600b84101617156106755782820a9050838111156106705761066f610544565b5b61069f565b6106828484846001610580565b9250905081840481111561069957610698610544565b5b81810290505b9392505050565b60006106b182610340565b91506106bc83610340565b92506106e97fffffffffffffffffffffffffffffffffffffffffffffffffffffffffffffffff84846105d3565b905092915050565b60006106fc82610340565b915061070783610340565b925082820261071581610340565b9150828204841483151761072c5761072b610544565b5b5092915050565b61073c81610340565b82525050565b60006020820190506107576000830184610733565b92915050565b610fad8061076c6000396000f3fe60806040526004361061008a5760003560e01c80637052dad9116100595780637052dad91461014a57806370a08231146101735780638da5cb5b146101b057806395d89b41146101db578063d0febe4c1461020657610099565b806306fdde031461009e57806318160ddd146100c9578063313ce567146100f4578063664e97041461011f57610099565b3661009957610097610210565b005b600080fd5b3480156100aa57600080fd5b506100b361057f565b6040516100c09190610a13565b60405180910390f35b3480156100d557600080fd5b506100de61060d565b6040516100eb9190610a4e565b60405180910390f35b34801561010057600080fd5b50610109610613565b6040516101169190610a85565b60405180910390f35b34801561012b57600080fd5b50610134610626565b6040516101419190610a4e565b60405180910390f35b34801561015657600080fd5b50610171600480360381019061016c9190610ad1565b61062b565b005b34801561017f57600080fd5b5061019a60048036038101906101959190610b5c565b6108b7565b6040516101a79190610a4e565b60405180910390f35b3480156101bc57600080fd5b506101c56108cf565b6040516101d29190610b98565b60405180910390f35b3480156101e757600080fd5b506101f06108f5565b6040516101fd9190610a13565b60405180910390f35b61020e610210565b005b60003411610253576040517f08c379a000000000000000000000000000000000000000000000000000000000815260040161024a90610bff565b60405180910390fd5b60006064346102629190610c4e565b90508060056000600460009054906101000a900473ffffffffffffffffffffffffffffffffffffffff1673ffffffffffffffffffffffffffffffffffffffff1673ffffffffffffffffffffffffffffffffffffffff168152602001908152602001600020541015610308576040517f08c379a00000000000000000000000000000000000000000000000000000000081526004016102ff90610cdc565b60405180910390fd5b8060056000600460009054906101000a900473ffffffffffffffffffffffffffffffffffffffff1673ffffffffffffffffffffffffffffffffffffffff1673ffffffffffffffffffffffffffffffffffffffff16815260200190815260200160002060008282546103799190610cfc565b9250508190555080600560003373ffffffffffffffffffffffffffffffffffffffff1673ffffffffffffffffffffffffffffffffffffffff16815260200190815260200160002060008282546103cf9190610d30565b925050819055503373ffffffffffffffffffffffffffffffffffffffff16600460009054906101000a900473ffffffffffffffffffffffffffffffffffffffff1673ffffffffffffffffffffffffffffffffffffffff167fddf252ad1be2c89b69c2b068fc378daa952ba7f163c4a11628f55a4df523b3ef836040516104559190610a4e565b60405180910390a33373ffffffffffffffffffffffffffffffffffffffff167f8fafebcaf9d154343dad25669bfa277f4fbacd7ac6b0c4fed522580e040a0f3334836040516104a5929190610d64565b60405180910390a26000600460009054906101000a900473ffffffffffffffffffffffffffffffffffffffff1673ffffffffffffffffffffffffffffffffffffffff16346040516104f590610dbe565b60006040518083038185875af1925050503d8060008114610532576040519150601f19603f3d011682016040523d82523d6000602084013e610537565b606091505b505090508061057b576040517f08c379a000000000000000000000000000000000000000000000000000000000815260040161057290610e1f565b60405180910390fd5b5050565b6000805461058c90610e6e565b80601f01602080910402602001604051908101604052809291908181526020018280546105b890610e6e565b80156106055780601f106105da57610100808354040283529160200191610605565b820191906000526020600020905b8154815290600101906020018083116105e857829003601f168201915b505050505081565b60035481565b600260009054906101000a900460ff1681565b606481565b600460009054906101000a900473ffffffffffffffffffffffffffffffffffffffff1673ffffffffffffffffffffffffffffffffffffffff163373ffffffffffffffffffffffffffffffffffffffff16146106bb576040517f08c379a00000000000000000000000000000000000000000000000000000000081526004016106b290610eeb565b60405180910390fd5b8060056000600460009054906101000a900473ffffffffffffffffffffffffffffffffffffffff1673ffffffffffffffffffffffffffffffffffffffff1673ffffffffffffffffffffffffffffffffffffffff16815260200190815260200160002054101561075f576040517f08c379a000000000000000000000000000000000000000000000000000000000815260040161075690610f57565b60405180910390fd5b8060056000600460009054906101000a900473ffffffffffffffffffffffffffffffffffffffff1673ffffffffffffffffffffffffffffffffffffffff1673ffffffffffffffffffffffffffffffffffffffff16815260200190815260200160002060008282546107d09190610cfc565b9250508190555080600560003373ffffffffffffffffffffffffffffffffffffffff1673ffffffffffffffffffffffffffffffffffffffff16815260200190815260200160002060008282546108269190610d30565b925050819055503373ffffffffffffffffffffffffffffffffffffffff16600460009054906101000a900473ffffffffffffffffffffffffffffffffffffffff1673ffffffffffffffffffffffffffffffffffffffff167fddf252ad1be2c89b69c2b068fc378daa952ba7f163c4a11628f55a4df523b3ef836040516108ac9190610a4e565b60405180910390a350565b60056020528060005260406000206000915090505481565b600460009054906101000a900473ffffffffffffffffffffffffffffffffffffffff1681565b6001805461090290610e6e565b80601f016020809104026020016040519081016040528092919081815260200182805461092e90610e6e565b801561097b5780601f106109505761010080835404028352916020019161097b565b820191906000526020600020905b81548152906001019060200180831161095e57829003601f168201915b505050505081565b600081519050919050565b600082825260208201905092915050565b60005b838110156109bd5780820151818401526020810190506109a2565b60008484015250505050565b6000601f19601f8301169050919050565b60006109e582610983565b6109ef818561098e565b93506109ff81856020860161099f565b610a08816109c9565b840191505092915050565b60006020820190508181036000830152610a2d81846109da565b905092915050565b6000819050919050565b610a4881610a35565b82525050565b6000602082019050610a636000830184610a3f565b92915050565b600060ff82169050919050565b610a7f81610a69565b82525050565b6000602082019050610a9a6000830184610a76565b92915050565b600080fd5b610aae81610a35565b8114610ab957600080fd5b50565b600081359050610acb81610aa5565b92915050565b600060208284031215610ae757610ae6610aa0565b5b6000610af584828501610abc565b91505092915050565b600073ffffffffffffffffffffffffffffffffffffffff82169050919050565b6000610b2982610afe565b9050919050565b610b3981610b1e565b8114610b4457600080fd5b50565b600081359050610b5681610b30565b92915050565b600060208284031215610b7257610b71610aa0565b5b6000610b8084828501610b47565b91505092915050565b610b9281610b1e565b82525050565b6000602082019050610bad6000830184610b89565b92915050565b7f53656e642045544820746f2062757920746f6b656e7300000000000000000000600082015250565b6000610be960168361098e565b9150610bf482610bb3565b602082019050919050565b60006020820190508181036000830152610c1881610bdc565b9050919050565b7f4e487b7100000000000000000000000000000000000000000000000000000000600052601160045260246000fd5b6000610c5982610a35565b9150610c6483610a35565b9250828202610c7281610a35565b91508282048414831517610c8957610c88610c1f565b5b5092915050565b7f4e6f7420656e6f75676820746f6b656e7320617661696c61626c650000000000600082015250565b6000610cc6601b8361098e565b9150610cd182610c90565b602082019050919050565b60006020820190508181036000830152610cf581610cb9565b9050919050565b6000610d0782610a35565b9150610d1283610a35565b9250828203905081811115610d2a57610d29610c1f565b5b92915050565b6000610d3b82610a35565b9150610d4683610a35565b9250828201905080821115610d5e57610d5d610c1f565b5b92915050565b6000604082019050610d796000830185610a3f565b610d866020830184610a3f565b9392505050565b600081905092915050565b50565b6000610da8600083610d8d565b9150610db382610d98565b600082019050919050565b6000610dc982610d9b565b9150819050919050565b7f455448207472616e73666572206661696c656400000000000000000000000000600082015250565b6000610e0960138361098e565b9150610e1482610dd3565b602082019050919050565b60006020820190508181036000830152610e3881610dfc565b9050919050565b7f4e487b7100000000000000000000000000000000000000000000000000000000600052602260045260246000fd5b60006002820490506001821680610e8657607f821691505b602082108103610e9957610e98610e3f565b5b50919050565b7f4f6e6c79206f776e65722063616e207769746864726177000000000000000000600082015250565b6000610ed560178361098e565b9150610ee082610e9f565b602082019050919050565b60006020820190508181036000830152610f0481610ec8565b9050919050565b7f496e73756666696369656e7420746f6b656e7300000000000000000000000000600082015250565b6000610f4160138361098e565b9150610f4c82610f0b565b602082019050919050565b60006020820190508181036000830152610f7081610f34565b905091905056fea2646970667358221220449678d7ed3939dfa8547c789648735544514213346bcdc5277ecc932a7e852064736f6c634300081c0033",
  "linkReferences": {},
  "deployedLinkReferences": {}
}